{
    "contractName": "SolMate",
    "abi": [
        {
            "inputs": [],
            "stateMutability": "nonpayable",
            "type": "constructor"
        },
        {
            "inputs": [],
            "name": "FundingFailed",
            "type": "error"
        },
        {
            "inputs": [],
            "name": "MinimumBalanceRequired",
            "type": "error"
        },
        {
            "inputs": [],
            "name": "NotAuthorized",
            "type": "error"
        },
        {
            "inputs": [],
            "name": "TopUpFailed",
            "type": "error"
        },
        {
            "inputs": [],
            "name": "WithdrawFailed",
            "type": "error"
        },
        {
            "anonymous": false,
            "inputs": [
                {
                    "indexed": false,
                    "internalType": "address",
                    "name": "taskAddress",
                    "type": "address"
                },
                {
                    "indexed": false,
                    "internalType": "uint256",
                    "name": "amount",
                    "type": "uint256"
                },
                {
                    "indexed": false,
                    "internalType": "address",
                    "name": "owner",
                    "type": "address"
                }
            ],
            "name": "AutoTaskCancelled",
            "type": "event"
        },
        {
            "anonymous": false,
            "inputs": [
                {
                    "indexed": false,
                    "internalType": "uint256",
                    "name": "amount",
                    "type": "uint256"
                },
                {
                    "indexed": false,
                    "internalType": "address",
                    "name": "caller",
                    "type": "address"
                }
            ],
            "name": "FundDeposited",
            "type": "event"
        },
        {
            "anonymous": false,
            "inputs": [
                {
                    "indexed": false,
                    "internalType": "uint256",
                    "name": "gasLimit",
                    "type": "uint256"
                },
                {
                    "indexed": false,
                    "internalType": "address",
                    "name": "taskAddress",
                    "type": "address"
                },
                {
                    "indexed": false,
                    "internalType": "address",
                    "name": "user",
                    "type": "address"
                }
            ],
            "name": "GasLimitUpdated",
            "type": "event"
        },
        {
            "anonymous": false,
            "inputs": [
                {
                    "indexed": false,
                    "internalType": "uint256",
                    "name": "id",
                    "type": "uint256"
                },
                {
                    "indexed": false,
                    "internalType": "address",
                    "name": "taskAddress",
                    "type": "address"
                },
                {
                    "indexed": false,
                    "internalType": "uint256",
                    "name": "funds",
                    "type": "uint256"
                },
                {
                    "indexed": false,
                    "internalType": "uint256",
                    "name": "gasLimit",
                    "type": "uint256"
                },
                {
                    "indexed": false,
                    "internalType": "enum SolMate.TaskState",
                    "name": "state",
                    "type": "uint8"
                },
                {
                    "indexed": false,
                    "internalType": "address",
                    "name": "creator",
                    "type": "address"
                },
                {
                    "indexed": false,
                    "internalType": "uint256",
                    "name": "totalCostForExec",
                    "type": "uint256"
                }
            ],
            "name": "NewAutoTask",
            "type": "event"
        },
        {
            "anonymous": false,
            "inputs": [
                {
                    "indexed": false,
                    "internalType": "uint256",
                    "name": "time",
                    "type": "uint256"
                },
                {
                    "indexed": false,
                    "internalType": "address",
                    "name": "taskAddress",
                    "type": "address"
                },
                {
                    "indexed": false,
                    "internalType": "uint256",
                    "name": "amount",
                    "type": "uint256"
                }
            ],
            "name": "TaskDetailsUpdated",
            "type": "event"
        },
        {
            "anonymous": false,
            "inputs": [
                {
                    "indexed": false,
                    "internalType": "address",
                    "name": "taskAddress",
                    "type": "address"
                },
                {
                    "indexed": false,
                    "internalType": "uint256",
                    "name": "fund",
                    "type": "uint256"
                }
            ],
            "name": "TaskFundWithdrawSuccess",
            "type": "event"
        },
        {
            "anonymous": false,
            "inputs": [
                {
                    "indexed": false,
                    "internalType": "uint256",
                    "name": "amount",
                    "type": "uint256"
                },
                {
                    "indexed": false,
                    "internalType": "address",
                    "name": "taskAddress",
                    "type": "address"
                }
            ],
            "name": "TaskFundingSuccess",
            "type": "event"
        },
        {
            "inputs": [
                {
                    "internalType": "uint256",
                    "name": "id",
                    "type": "uint256"
                },
                {
                    "internalType": "address",
                    "name": "executor",
                    "type": "address"
                }
            ],
            "name": "addFunds",
            "outputs": [],
            "stateMutability": "payable",
            "type": "function"
        },
        {
            "inputs": [
                {
                    "internalType": "address",
                    "name": "_taskAddress",
                    "type": "address"
                }
            ],
            "name": "cancelAutomation",
            "outputs": [],
            "stateMutability": "nonpayable",
            "type": "function"
        },
        {
            "inputs": [
                {
                    "internalType": "address",
                    "name": "_address",
                    "type": "address"
                },
                {
                    "internalType": "uint256",
                    "name": "_gasLimit",
                    "type": "uint256"
                },
                {
                    "internalType": "address",
                    "name": "executor",
                    "type": "address"
                }
            ],
            "name": "createAutomation",
            "outputs": [],
            "stateMutability": "payable",
            "type": "function"
        },
        {
            "inputs": [],
            "name": "depositeFunds",
            "outputs": [],
            "stateMutability": "payable",
            "type": "function"
        },
        {
            "inputs": [
                {
                    "internalType": "uint256",
                    "name": "id",
                    "type": "uint256"
                }
            ],
            "name": "execute",
            "outputs": [],
            "stateMutability": "nonpayable",
            "type": "function"
        },
        {
            "inputs": [],
            "name": "getAllTasks",
            "outputs": [
                {
                    "components": [
                        {
                            "internalType": "uint256",
                            "name": "id",
                            "type": "uint256"
                        },
                        {
                            "internalType": "address",
                            "name": "taskAddress",
                            "type": "address"
                        },
                        {
                            "internalType": "uint256",
                            "name": "funds",
                            "type": "uint256"
                        },
                        {
                            "internalType": "uint256",
                            "name": "gasLimit",
                            "type": "uint256"
                        },
                        {
                            "internalType": "enum SolMate.TaskState",
                            "name": "state",
                            "type": "uint8"
                        },
                        {
                            "internalType": "address",
                            "name": "creator",
                            "type": "address"
                        },
                        {
                            "internalType": "uint256",
                            "name": "totalCostForExec",
                            "type": "uint256"
                        }
                    ],
                    "internalType": "struct SolMate.AutoTask[]",
                    "name": "",
                    "type": "tuple[]"
                }
            ],
            "stateMutability": "view",
            "type": "function"
        },
        {
            "inputs": [
                {
                    "internalType": "address",
                    "name": "_taskAddress",
                    "type": "address"
                }
            ],
            "name": "getExecListOf",
            "outputs": [
                {
                    "internalType": "uint256[]",
                    "name": "",
                    "type": "uint256[]"
                }
            ],
            "stateMutability": "view",
            "type": "function"
        },
        {
            "inputs": [],
            "name": "getOwner",
            "outputs": [
                {
                    "internalType": "address",
                    "name": "",
                    "type": "address"
                }
            ],
            "stateMutability": "view",
            "type": "function"
        },
        {
            "inputs": [
                {
                    "internalType": "address",
                    "name": "_taskAddress",
                    "type": "address"
                }
            ],
            "name": "getTaskByAddress",
            "outputs": [
                {
                    "components": [
                        {
                            "internalType": "uint256",
                            "name": "id",
                            "type": "uint256"
                        },
                        {
                            "internalType": "address",
                            "name": "taskAddress",
                            "type": "address"
                        },
                        {
                            "internalType": "uint256",
                            "name": "funds",
                            "type": "uint256"
                        },
                        {
                            "internalType": "uint256",
                            "name": "gasLimit",
                            "type": "uint256"
                        },
                        {
                            "internalType": "enum SolMate.TaskState",
                            "name": "state",
                            "type": "uint8"
                        },
                        {
                            "internalType": "address",
                            "name": "creator",
                            "type": "address"
                        },
                        {
                            "internalType": "uint256",
                            "name": "totalCostForExec",
                            "type": "uint256"
                        }
                    ],
                    "internalType": "struct SolMate.AutoTask",
                    "name": "",
                    "type": "tuple"
                }
            ],
            "stateMutability": "view",
            "type": "function"
        },
        {
            "inputs": [
                {
                    "internalType": "uint256",
                    "name": "id",
                    "type": "uint256"
                }
            ],
            "name": "getTaskById",
            "outputs": [
                {
                    "components": [
                        {
                            "internalType": "uint256",
                            "name": "id",
                            "type": "uint256"
                        },
                        {
                            "internalType": "address",
                            "name": "taskAddress",
                            "type": "address"
                        },
                        {
                            "internalType": "uint256",
                            "name": "funds",
                            "type": "uint256"
                        },
                        {
                            "internalType": "uint256",
                            "name": "gasLimit",
                            "type": "uint256"
                        },
                        {
                            "internalType": "enum SolMate.TaskState",
                            "name": "state",
                            "type": "uint8"
                        },
                        {
                            "internalType": "address",
                            "name": "creator",
                            "type": "address"
                        },
                        {
                            "internalType": "uint256",
                            "name": "totalCostForExec",
                            "type": "uint256"
                        }
                    ],
                    "internalType": "struct SolMate.AutoTask",
                    "name": "",
                    "type": "tuple"
                }
            ],
            "stateMutability": "view",
            "type": "function"
        },
        {
            "inputs": [
                {
                    "internalType": "uint256",
                    "name": "id",
                    "type": "uint256"
                },
                {
                    "internalType": "uint256",
                    "name": "amount",
                    "type": "uint256"
                }
            ],
            "name": "updateTaskExecDetails",
            "outputs": [],
            "stateMutability": "payable",
            "type": "function"
        },
        {
            "inputs": [
                {
                    "internalType": "uint256",
                    "name": "id",
                    "type": "uint256"
                },
                {
                    "internalType": "uint256",
                    "name": "_gasLimit",
                    "type": "uint256"
                }
            ],
            "name": "updateTaskGasLimit",
            "outputs": [],
            "stateMutability": "payable",
            "type": "function"
        },
        {
            "inputs": [
                {
                    "internalType": "uint256",
                    "name": "amount",
                    "type": "uint256"
                }
            ],
            "name": "withdrawContractFunds",
            "outputs": [],
            "stateMutability": "payable",
            "type": "function"
        },
        {
            "inputs": [
                {
                    "internalType": "uint256",
                    "name": "id",
                    "type": "uint256"
                }
            ],
            "name": "withdrawFunds",
            "outputs": [],
            "stateMutability": "payable",
            "type": "function"
        }
    ],
    "bytecode": "60a060405234801561001057600080fd5b503360805260805161152661004c6000396000818161019b01528181610292015281816102dc0152818161072b015261108901526115266000f3fe6080604052600436106100dd5760003560e01c8063893d20e81161007f578063ae3e7dff11610059578063ae3e7dff14610212578063d056935d1461021a578063d186953d14610247578063fe0d94c11461026757600080fd5b8063893d20e814610181578063976217cd146101c5578063ad296f27146101f257600080fd5b80632360f8ff116100bb5780632360f8ff1461011d5780632bf37c421461013057806355d300fd14610143578063779900b41461015657600080fd5b8063069f5bf7146100e2578063155dd5ee146100f75780631e626e401461010a575b600080fd5b6100f56100f0366004611205565b610287565b005b6100f5610105366004611205565b610370565b6100f561011836600461123a565b610510565b6100f561012b366004611276565b610720565b6100f561013e366004611298565b61086f565b6100f5610151366004611276565b6109c5565b34801561016257600080fd5b5061016b610acc565b6040516101789190611355565b60405180910390f35b34801561018d57600080fd5b506040516001600160a01b037f0000000000000000000000000000000000000000000000000000000000000000168152602001610178565b3480156101d157600080fd5b506101e56101e0366004611205565b610bbb565b60405161017891906113a3565b3480156101fe57600080fd5b506100f561020d3660046113b7565b610ca6565b6100f5610e10565b34801561022657600080fd5b5061023a6102353660046113b7565b610ec6565b60405161017891906113d9565b34801561025357600080fd5b506101e56102623660046113b7565b610f32565b34801561027357600080fd5b506100f5610282366004611205565b61107e565b336001600160a01b037f000000000000000000000000000000000000000000000000000000000000000016146102d85760405162461bcd60e51b81526004016102cf90611411565b60405180910390fd5b60007f00000000000000000000000000000000000000000000000000000000000000006001600160a01b03168260405160006040518083038185875af1925050503d8060008114610345576040519150601f19603f3d011682016040523d82523d6000602084013e61034a565b606091505b505090508061036c57604051631d42c86760e21b815260040160405180910390fd5b5050565b6000600161037e8184611452565b8154811061038e5761038e611465565b600091825260209091206006909102016004015461010090046001600160a01b031633146103cf5760405163ea8e4eb560e01b815260040160405180910390fd5b60016103db8184611452565b815481106103eb576103eb611465565b600091825260208220600260069092020101549150600161040c8185611452565b8154811061041c5761041c611465565b60009182526020822060026006909202010191909155604051339083908381818185875af1925050503d8060008114610471576040519150601f19603f3d011682016040523d82523d6000602084013e610476565b606091505b505090508061049857604051631d42c86760e21b815260040160405180910390fd5b7ff404fa7f55898872111a8af61ad9ea7a6123fcc288c97073fb2dc7c7c6c38ed960016104c58186611452565b815481106104d5576104d5611465565b600091825260209182902060069091020160010154604080516001600160a01b039092168252918101859052015b60405180910390a1505050565b6601c6bf526340003410156105385760405163ce027d0d60e01b815260040160405180910390fd5b60016040518060e001604052806001805490506001610557919061147b565b81526001600160a01b0386166020820152346040820152606081018590526080016000815233602080830191909152600060409283018190528454600180820187559582529082902084516006909202019081559083015181850180546001600160a01b0319166001600160a01b03909216919091179055908201516002820155606082015160038201556080820151600482018054939492939192909160ff191690838181111561060b5761060b6112c4565b021790555060a082015160048281018054610100600160a81b0319166101006001600160a01b039485160217905560c090930151600590920191909155821660008181526020929092526040808320805460ff191660011790555134908381818185875af1925050503d80600081146106a0576040519150601f19603f3d011682016040523d82523d6000602084013e6106a5565b606091505b50509050806106c7576040516335207f1b60e21b815260040160405180910390fd5b600180547f8f4abb9c631cfd2d2b6f3f5cefb00c16168ce184a51bc8a62ded06afb67bf00f916106f7919061147b565b8534866000336000604051610712979695949392919061148e565b60405180910390a150505050565b336001600160a01b037f000000000000000000000000000000000000000000000000000000000000000016146107685760405162461bcd60e51b81526004016102cf90611411565b8060016107758185611452565b8154811061078557610785611465565b906000526020600020906006020160050160008282546107a5919061147b565b9091555081905060016107b88185611452565b815481106107c8576107c8611465565b906000526020600020906006020160020160008282546107e89190611452565b909155507f472dbcd999ba0ec6b1178ce58f0a27fc90a830438fe449f6bf2c63baffa34cac905042600161081c8186611452565b8154811061082c5761082c611465565b600091825260209182902060069091020160010154604080519384526001600160a01b039091169183019190915281018390526060015b60405180910390a15050565b655af3107a40003410156108965760405163ce027d0d60e01b815260040160405180910390fd5b3460016108a38185611452565b815481106108b3576108b3611465565b906000526020600020906006020160020160008282546108d3919061147b565b90915550506040516000906001600160a01b0383169034908381818185875af1925050503d8060008114610923576040519150601f19603f3d011682016040523d82523d6000602084013e610928565b606091505b505090508061094a5760405163362f189f60e01b815260040160405180910390fd5b7fea5532f7da24511b0f68fb5d9c492ae8611139a2bb849ca0291dbf6a266a318c3460016109788187611452565b8154811061098857610988611465565b600091825260209091206001600690920201015460405161050392916001600160a01b0316909182526001600160a01b0316602082015260400190565b60016109d18184611452565b815481106109e1576109e1611465565b600091825260209091206006909102016004015461010090046001600160a01b03163314610a225760405163ea8e4eb560e01b815260040160405180910390fd5b806001610a2f8185611452565b81548110610a3f57610a3f611465565b60009182526020909120600360069092020101557fb13cace0335cf27f9a92f0c874a39bb19ad3863131152b467d9a0cae23e20430816001610a818186611452565b81548110610a9157610a91611465565b600091825260209182902060069091020160010154604080519384526001600160a01b03909116918301919091523390820152606001610863565b60606001805480602002602001604051908101604052809291908181526020016000905b82821015610bb25760008481526020908190206040805160e08101825260068602909201805483526001808201546001600160a01b03169484019490945260028101549183019190915260038101546060830152600481015491929091608084019160ff90911690811115610b6757610b676112c4565b6001811115610b7857610b786112c4565b8152600482015461010090046001600160a01b03166020808301919091526005909201546040909101529082526001929092019101610af0565b50505050905090565b610bc36111ae565b6001610bcf8184611452565b81548110610bdf57610bdf611465565b90600052602060002090600602016040518060e0016040529081600082015481526020016001820160009054906101000a90046001600160a01b03166001600160a01b03166001600160a01b0316815260200160028201548152602001600382015481526020016004820160009054906101000a900460ff166001811115610c6957610c696112c4565b6001811115610c7a57610c7a6112c4565b8152600482015461010090046001600160a01b0316602082015260059091015460409091015292915050565b6000805b600154811015610dc657826001600160a01b031660018281548110610cd157610cd1611465565b60009182526020909120600160069092020101546001600160a01b031603610db45760018181548110610d0657610d06611465565b600091825260209091206006909102016004015461010090046001600160a01b03163314610d475760405163ea8e4eb560e01b815260040160405180910390fd5b6001808281548110610d5b57610d5b611465565b60009182526020909120600460069092020101805460ff191660018381811115610d8757610d876112c4565b021790555060018181548110610d9f57610d9f611465565b90600052602060002090600602016002015491505b80610dbe816114d7565b915050610caa565b50604080516001600160a01b03841681526020810183905233918101919091527ff05dadadae71396048aa495562575dc275f44dcb28c57c9224cff0b70fc1a77590606001610863565b3360009081526004602052604090205460ff161515600114610e655760405162461bcd60e51b815260206004820152600e60248201526d1b9bdd08185d5d1a1bdc9a5e995960921b60448201526064016102cf565b6509184e72a000341015610e8c5760405163ce027d0d60e01b815260040160405180910390fd5b604080513481523360208201527f89beda094c88526c39d5baf990beefe98ad938fa0fb46af0c5560751beb96c85910160405180910390a1565b6001600160a01b038116600090815260036020908152604091829020805483518184028101840190945280845260609392830182828015610f2657602002820191906000526020600020905b815481526020019060010190808311610f12575b50505050509050919050565b610f3a6111ae565b610f426111ae565b60005b60015481101561107757836001600160a01b031660018281548110610f6c57610f6c611465565b60009182526020909120600160069092020101546001600160a01b0316036110655760018181548110610fa157610fa1611465565b90600052602060002090600602016040518060e0016040529081600082015481526020016001820160009054906101000a90046001600160a01b03166001600160a01b03166001600160a01b0316815260200160028201548152602001600382015481526020016004820160009054906101000a900460ff16600181111561102b5761102b6112c4565b600181111561103c5761103c6112c4565b8152600482015461010090046001600160a01b0316602082015260059091015460409091015291505b8061106f816114d7565b915050610f45565b5092915050565b336001600160a01b037f000000000000000000000000000000000000000000000000000000000000000016146110c65760405162461bcd60e51b81526004016102cf90611411565b60016110d28183611452565b815481106110e2576110e2611465565b600091825260208220600160069092020101546040805163024d567f60e11b815290516001600160a01b039092169263049aacfe9260048084019382900301818387803b15801561113257600080fd5b505af1158015611146573d6000803e3d6000fd5b50505050600360006001808461115c9190611452565b8154811061116c5761116c611465565b6000918252602080832060016006909302018201546001600160a01b031684528381019490945260409092018120805492830181558152919091204291015550565b6040518060e001604052806000815260200160006001600160a01b031681526020016000815260200160008152602001600060018111156111f1576111f16112c4565b815260006020820181905260409091015290565b60006020828403121561121757600080fd5b5035919050565b80356001600160a01b038116811461123557600080fd5b919050565b60008060006060848603121561124f57600080fd5b6112588461121e565b92506020840135915061126d6040850161121e565b90509250925092565b6000806040838503121561128957600080fd5b50508035926020909101359150565b600080604083850312156112ab57600080fd5b823591506112bb6020840161121e565b90509250929050565b634e487b7160e01b600052602160045260246000fd5b600281106112f857634e487b7160e01b600052602160045260246000fd5b9052565b80518252602081015160018060a01b03808216602085015260408301516040850152606083015160608501526080830151915061133c60808501836112da565b60a083810151909116908401525060c090810151910152565b6020808252825182820181905260009190848201906040850190845b81811015611397576113848385516112fc565b9284019260e09290920191600101611371565b50909695505050505050565b60e081016113b182846112fc565b92915050565b6000602082840312156113c957600080fd5b6113d28261121e565b9392505050565b6020808252825182820181905260009190848201906040850190845b81811015611397578351835292840192918401916001016113f5565b6020808252601190820152703ab9b2b91034b9903737ba1037bbb732b960791b604082015260600190565b634e487b7160e01b600052601160045260246000fd5b818103818111156113b1576113b161143c565b634e487b7160e01b600052603260045260246000fd5b808201808211156113b1576113b161143c565b8781526001600160a01b038781166020830152604082018790526060820186905260e08201906114c160808401876112da565b9390931660a082015260c0015295945050505050565b6000600182016114e9576114e961143c565b506001019056fea2646970667358221220711e36c4727bb7dc2e6d8d3af6f9b9ee7a1a9258c95b5751e6078e8706e11cab64736f6c63430008110033",
    "sourcePath": "/home/pranav/Desktop/Projects/solMate-contract/contracts/solMate.sol",
    "compiler": {
        "name": "solc",
        "version": "0.8.17+commit.8df45f5f"
    },
    "functionHashes": {
        "addFunds(uint256,address)": "2bf37c42",
        "cancelAutomation(address)": "ad296f27",
        "createAutomation(address,uint256,address)": "1e626e40",
        "depositeFunds()": "ae3e7dff",
        "execute(uint256)": "fe0d94c1",
        "getAllTasks()": "779900b4",
        "getExecListOf(address)": "d056935d",
        "getOwner()": "893d20e8",
        "getTaskByAddress(address)": "d186953d",
        "getTaskById(uint256)": "976217cd",
        "updateTaskExecDetails(uint256,uint256)": "2360f8ff",
        "updateTaskGasLimit(uint256,uint256)": "55d300fd",
        "withdrawContractFunds(uint256)": "069f5bf7",
        "withdrawFunds(uint256)": "155dd5ee"
    },
    "gasEstimates": {
        "creation": {
            "codeDepositCost": "1082800",
            "executionCost": "infinite",
            "totalCost": "infinite"
        },
        "external": {
            "addFunds(uint256,address)": "infinite",
            "cancelAutomation(address)": "infinite",
            "createAutomation(address,uint256,address)": "infinite",
            "depositeFunds()": "3699",
            "execute(uint256)": "infinite",
            "getAllTasks()": "infinite",
            "getExecListOf(address)": "infinite",
            "getOwner()": "infinite",
            "getTaskByAddress(address)": "infinite",
            "getTaskById(uint256)": "infinite",
            "updateTaskExecDetails(uint256,uint256)": "infinite",
            "updateTaskGasLimit(uint256,uint256)": "infinite",
            "withdrawContractFunds(uint256)": "infinite",
            "withdrawFunds(uint256)": "infinite"
        }
    }
}