{
  "address": "0x0636F54c3E9087922485c0Bc425697787eb6DaF9",
  "abi": [
    {
      "inputs": [],
      "stateMutability": "nonpayable",
      "type": "constructor"
    },
    {
      "inputs": [],
      "name": "FundingFailed",
      "type": "error"
    },
    {
      "inputs": [],
      "name": "MinimumBalanceRequired",
      "type": "error"
    },
    {
      "inputs": [],
      "name": "NotAuthorized",
      "type": "error"
    },
    {
      "inputs": [],
      "name": "TopUpFailed",
      "type": "error"
    },
    {
      "inputs": [],
      "name": "WithdrawFailed",
      "type": "error"
    },
    {
      "anonymous": false,
      "inputs": [
        {
          "indexed": false,
          "internalType": "address",
          "name": "taskAddress",
          "type": "address"
        },
        {
          "indexed": false,
          "internalType": "uint256",
          "name": "amount",
          "type": "uint256"
        },
        {
          "indexed": false,
          "internalType": "address",
          "name": "owner",
          "type": "address"
        }
      ],
      "name": "AutoTaskCancelled",
      "type": "event"
    },
    {
      "anonymous": false,
      "inputs": [
        {
          "indexed": false,
          "internalType": "uint256",
          "name": "amount",
          "type": "uint256"
        },
        {
          "indexed": false,
          "internalType": "address",
          "name": "caller",
          "type": "address"
        }
      ],
      "name": "FundDeposited",
      "type": "event"
    },
    {
      "anonymous": false,
      "inputs": [
        {
          "indexed": false,
          "internalType": "uint256",
          "name": "gasLimit",
          "type": "uint256"
        },
        {
          "indexed": false,
          "internalType": "address",
          "name": "taskAddress",
          "type": "address"
        },
        {
          "indexed": false,
          "internalType": "address",
          "name": "user",
          "type": "address"
        }
      ],
      "name": "GasLimitUpdated",
      "type": "event"
    },
    {
      "anonymous": false,
      "inputs": [
        {
          "indexed": false,
          "internalType": "uint256",
          "name": "id",
          "type": "uint256"
        },
        {
          "indexed": false,
          "internalType": "address",
          "name": "taskAddress",
          "type": "address"
        },
        {
          "indexed": false,
          "internalType": "uint256",
          "name": "funds",
          "type": "uint256"
        },
        {
          "indexed": false,
          "internalType": "uint256",
          "name": "gasLimit",
          "type": "uint256"
        },
        {
          "indexed": false,
          "internalType": "enum SolMate.TaskState",
          "name": "state",
          "type": "uint8"
        },
        {
          "indexed": false,
          "internalType": "address",
          "name": "creator",
          "type": "address"
        },
        {
          "indexed": false,
          "internalType": "uint256",
          "name": "totalCostForExec",
          "type": "uint256"
        }
      ],
      "name": "NewAutoTask",
      "type": "event"
    },
    {
      "anonymous": false,
      "inputs": [
        {
          "indexed": false,
          "internalType": "uint256",
          "name": "time",
          "type": "uint256"
        },
        {
          "indexed": false,
          "internalType": "address",
          "name": "taskAddress",
          "type": "address"
        },
        {
          "indexed": false,
          "internalType": "uint256",
          "name": "amount",
          "type": "uint256"
        }
      ],
      "name": "TaskDetailsUpdated",
      "type": "event"
    },
    {
      "anonymous": false,
      "inputs": [
        {
          "indexed": false,
          "internalType": "address",
          "name": "taskAddress",
          "type": "address"
        },
        {
          "indexed": false,
          "internalType": "uint256",
          "name": "fund",
          "type": "uint256"
        }
      ],
      "name": "TaskFundWithdrawSuccess",
      "type": "event"
    },
    {
      "anonymous": false,
      "inputs": [
        {
          "indexed": false,
          "internalType": "uint256",
          "name": "amount",
          "type": "uint256"
        },
        {
          "indexed": false,
          "internalType": "address",
          "name": "taskAddress",
          "type": "address"
        }
      ],
      "name": "TaskFundingSuccess",
      "type": "event"
    },
    {
      "inputs": [
        {
          "internalType": "uint256",
          "name": "id",
          "type": "uint256"
        },
        {
          "internalType": "address",
          "name": "executor",
          "type": "address"
        }
      ],
      "name": "addFunds",
      "outputs": [],
      "stateMutability": "payable",
      "type": "function"
    },
    {
      "inputs": [
        {
          "internalType": "uint256",
          "name": "id",
          "type": "uint256"
        }
      ],
      "name": "cancelAutomation",
      "outputs": [],
      "stateMutability": "nonpayable",
      "type": "function"
    },
    {
      "inputs": [
        {
          "internalType": "address",
          "name": "_address",
          "type": "address"
        },
        {
          "internalType": "uint256",
          "name": "_gasLimit",
          "type": "uint256"
        },
        {
          "internalType": "address",
          "name": "executor",
          "type": "address"
        }
      ],
      "name": "createAutomation",
      "outputs": [],
      "stateMutability": "payable",
      "type": "function"
    },
    {
      "inputs": [],
      "name": "depositeFunds",
      "outputs": [],
      "stateMutability": "payable",
      "type": "function"
    },
    {
      "inputs": [
        {
          "internalType": "uint256",
          "name": "id",
          "type": "uint256"
        }
      ],
      "name": "execute",
      "outputs": [],
      "stateMutability": "nonpayable",
      "type": "function"
    },
    {
      "inputs": [],
      "name": "getAllTasks",
      "outputs": [
        {
          "components": [
            {
              "internalType": "uint256",
              "name": "id",
              "type": "uint256"
            },
            {
              "internalType": "address",
              "name": "taskAddress",
              "type": "address"
            },
            {
              "internalType": "uint256",
              "name": "funds",
              "type": "uint256"
            },
            {
              "internalType": "uint256",
              "name": "gasLimit",
              "type": "uint256"
            },
            {
              "internalType": "enum SolMate.TaskState",
              "name": "state",
              "type": "uint8"
            },
            {
              "internalType": "address",
              "name": "creator",
              "type": "address"
            },
            {
              "internalType": "uint256",
              "name": "totalCostForExec",
              "type": "uint256"
            }
          ],
          "internalType": "struct SolMate.AutoTask[]",
          "name": "",
          "type": "tuple[]"
        }
      ],
      "stateMutability": "view",
      "type": "function"
    },
    {
      "inputs": [
        {
          "internalType": "address",
          "name": "_taskAddress",
          "type": "address"
        }
      ],
      "name": "getExecListOf",
      "outputs": [
        {
          "internalType": "uint256[]",
          "name": "",
          "type": "uint256[]"
        }
      ],
      "stateMutability": "view",
      "type": "function"
    },
    {
      "inputs": [],
      "name": "getOwner",
      "outputs": [
        {
          "internalType": "address",
          "name": "",
          "type": "address"
        }
      ],
      "stateMutability": "view",
      "type": "function"
    },
    {
      "inputs": [
        {
          "internalType": "address",
          "name": "taskAddress",
          "type": "address"
        }
      ],
      "name": "getStatus",
      "outputs": [
        {
          "internalType": "bool",
          "name": "",
          "type": "bool"
        }
      ],
      "stateMutability": "view",
      "type": "function"
    },
    {
      "inputs": [
        {
          "internalType": "address",
          "name": "_taskAddress",
          "type": "address"
        }
      ],
      "name": "getTaskByAddress",
      "outputs": [
        {
          "components": [
            {
              "internalType": "uint256",
              "name": "id",
              "type": "uint256"
            },
            {
              "internalType": "address",
              "name": "taskAddress",
              "type": "address"
            },
            {
              "internalType": "uint256",
              "name": "funds",
              "type": "uint256"
            },
            {
              "internalType": "uint256",
              "name": "gasLimit",
              "type": "uint256"
            },
            {
              "internalType": "enum SolMate.TaskState",
              "name": "state",
              "type": "uint8"
            },
            {
              "internalType": "address",
              "name": "creator",
              "type": "address"
            },
            {
              "internalType": "uint256",
              "name": "totalCostForExec",
              "type": "uint256"
            }
          ],
          "internalType": "struct SolMate.AutoTask",
          "name": "",
          "type": "tuple"
        }
      ],
      "stateMutability": "view",
      "type": "function"
    },
    {
      "inputs": [
        {
          "internalType": "uint256",
          "name": "id",
          "type": "uint256"
        }
      ],
      "name": "getTaskById",
      "outputs": [
        {
          "components": [
            {
              "internalType": "uint256",
              "name": "id",
              "type": "uint256"
            },
            {
              "internalType": "address",
              "name": "taskAddress",
              "type": "address"
            },
            {
              "internalType": "uint256",
              "name": "funds",
              "type": "uint256"
            },
            {
              "internalType": "uint256",
              "name": "gasLimit",
              "type": "uint256"
            },
            {
              "internalType": "enum SolMate.TaskState",
              "name": "state",
              "type": "uint8"
            },
            {
              "internalType": "address",
              "name": "creator",
              "type": "address"
            },
            {
              "internalType": "uint256",
              "name": "totalCostForExec",
              "type": "uint256"
            }
          ],
          "internalType": "struct SolMate.AutoTask",
          "name": "",
          "type": "tuple"
        }
      ],
      "stateMutability": "view",
      "type": "function"
    },
    {
      "inputs": [
        {
          "internalType": "uint256",
          "name": "id",
          "type": "uint256"
        },
        {
          "internalType": "uint256",
          "name": "amount",
          "type": "uint256"
        }
      ],
      "name": "updateTaskExecDetails",
      "outputs": [],
      "stateMutability": "payable",
      "type": "function"
    },
    {
      "inputs": [
        {
          "internalType": "uint256",
          "name": "id",
          "type": "uint256"
        },
        {
          "internalType": "uint256",
          "name": "_gasLimit",
          "type": "uint256"
        }
      ],
      "name": "updateTaskGasLimit",
      "outputs": [],
      "stateMutability": "payable",
      "type": "function"
    },
    {
      "inputs": [
        {
          "internalType": "uint256",
          "name": "amount",
          "type": "uint256"
        }
      ],
      "name": "withdrawContractFunds",
      "outputs": [],
      "stateMutability": "payable",
      "type": "function"
    },
    {
      "inputs": [
        {
          "internalType": "uint256",
          "name": "id",
          "type": "uint256"
        }
      ],
      "name": "withdrawFunds",
      "outputs": [],
      "stateMutability": "payable",
      "type": "function"
    }
  ],
  "transactionHash": "0x355a9009a44bba3591064c8a058247b8a0af40347ddc2ded70ff915020a3230b",
  "args": [],
  "numDeployments": 17,
  "solcInputHash": "b3ab402f524fc2a5c787a25078dd316e",
  "bytecode": "0x60a060405234801561001057600080fd5b503373ffffffffffffffffffffffffffffffffffffffff1660808173ffffffffffffffffffffffffffffffffffffffff168152505060805161238b6100836000396000818161033d015281816103cd015281816109b801528181611304015281816114800152611814015261238b6000f3fe6080604052600436106100e85760003560e01c806357625f201161008a578063ae3e7dff11610059578063ae3e7dff1461028e578063d056935d14610298578063d186953d146102d5578063fe0d94c114610312576100e8565b806357625f20146101d2578063779900b4146101fb578063893d20e814610226578063976217cd14610251576100e8565b80632360f8ff116100c65780632360f8ff146101415780632bf37c421461015d57806330ccebb51461017957806355d300fd146101b6576100e8565b8063069f5bf7146100ed578063155dd5ee146101095780631e626e4014610125575b600080fd5b61010760048036038101906101029190611a09565b61033b565b005b610123600480360381019061011e9190611a09565b610490565b005b61013f600480360381019061013a9190611a94565b6106e1565b005b61015b60048036038101906101569190611ae7565b6109b6565b005b61017760048036038101906101729190611b27565b610c17565b005b34801561018557600080fd5b506101a0600480360381019061019b9190611b67565b610dcf565b6040516101ad9190611baf565b60405180910390f35b6101d060048036038101906101cb9190611ae7565b610e47565b005b3480156101de57600080fd5b506101f960048036038101906101f49190611a09565b610fc0565b005b34801561020757600080fd5b50610210611192565b60405161021d9190611d9c565b60405180910390f35b34801561023257600080fd5b5061023b611300565b6040516102489190611dcd565b60405180910390f35b34801561025d57600080fd5b5061027860048036038101906102739190611a09565b611328565b6040516102859190611e76565b60405180910390f35b61029661147e565b005b3480156102a457600080fd5b506102bf60048036038101906102ba9190611b67565b611587565b6040516102cc9190611f40565b60405180910390f35b3480156102e157600080fd5b506102fc60048036038101906102f79190611b67565b61161e565b6040516103099190611e76565b60405180910390f35b34801561031e57600080fd5b5061033960048036038101906103349190611a09565b611812565b005b7f000000000000000000000000000000000000000000000000000000000000000073ffffffffffffffffffffffffffffffffffffffff163373ffffffffffffffffffffffffffffffffffffffff16146103c9576040517f08c379a00000000000000000000000000000000000000000000000000000000081526004016103c090611fbf565b60405180910390fd5b60007f000000000000000000000000000000000000000000000000000000000000000073ffffffffffffffffffffffffffffffffffffffff168260405161040f90612010565b60006040518083038185875af1925050503d806000811461044c576040519150601f19603f3d011682016040523d82523d6000602084013e610451565b606091505b505090508061048c576040517f750b219c00000000000000000000000000000000000000000000000000000000815260040160405180910390fd5b5050565b6000600180836104a09190612054565b815481106104b1576104b0612088565b5b906000526020600020906006020160040160019054906101000a900473ffffffffffffffffffffffffffffffffffffffff1673ffffffffffffffffffffffffffffffffffffffff163373ffffffffffffffffffffffffffffffffffffffff1614610547576040517fea8e4eb500000000000000000000000000000000000000000000000000000000815260040160405180910390fd5b600180836105559190612054565b8154811061056657610565612088565b5b906000526020600020906006020160020154905060006001808461058a9190612054565b8154811061059b5761059a612088565b5b90600052602060002090600602016002018190555060003373ffffffffffffffffffffffffffffffffffffffff16826040516105d690612010565b60006040518083038185875af1925050503d8060008114610613576040519150601f19603f3d011682016040523d82523d6000602084013e610618565b606091505b5050905080610653576040517f750b219c00000000000000000000000000000000000000000000000000000000815260040160405180910390fd5b7ff404fa7f55898872111a8af61ad9ea7a6123fcc288c97073fb2dc7c7c6c38ed9600180856106829190612054565b8154811061069357610692612088565b5b906000526020600020906006020160010160009054906101000a900473ffffffffffffffffffffffffffffffffffffffff16836040516106d49291906120c6565b60405180910390a1505050565b6601c6bf52634000341015610722576040517fce027d0d00000000000000000000000000000000000000000000000000000000815260040160405180910390fd5b60016040518060e001604052806001808054905061074091906120ef565b81526020018573ffffffffffffffffffffffffffffffffffffffff1681526020013481526020018481526020016000600181111561078157610780611c14565b5b81526020013373ffffffffffffffffffffffffffffffffffffffff168152602001600081525090806001815401808255809150506001900390600052602060002090600602016000909190919091506000820151816000015560208201518160010160006101000a81548173ffffffffffffffffffffffffffffffffffffffff021916908373ffffffffffffffffffffffffffffffffffffffff160217905550604082015181600201556060820151816003015560808201518160040160006101000a81548160ff021916908360018111156108605761085f611c14565b5b021790555060a08201518160040160016101000a81548173ffffffffffffffffffffffffffffffffffffffff021916908373ffffffffffffffffffffffffffffffffffffffff16021790555060c08201518160050155505060008173ffffffffffffffffffffffffffffffffffffffff16346040516108de90612010565b60006040518083038185875af1925050503d806000811461091b576040519150601f19603f3d011682016040523d82523d6000602084013e610920565b606091505b505090508061095b576040517fd481fc6c00000000000000000000000000000000000000000000000000000000815260040160405180910390fd5b7f8f4abb9c631cfd2d2b6f3f5cefb00c16168ce184a51bc8a62ded06afb67bf00f6001808054905061098d91906120ef565b85348660003360006040516109a89796959493929190612177565b60405180910390a150505050565b7f000000000000000000000000000000000000000000000000000000000000000073ffffffffffffffffffffffffffffffffffffffff163373ffffffffffffffffffffffffffffffffffffffff1614610a44576040517f08c379a0000000000000000000000000000000000000000000000000000000008152600401610a3b90611fbf565b60405180910390fd5b8060018084610a539190612054565b81548110610a6457610a63612088565b5b90600052602060002090600602016005016000828254610a8491906120ef565b925050819055508060018084610a9a9190612054565b81548110610aab57610aaa612088565b5b90600052602060002090600602016002016000828254610acb9190612054565b925050819055506003600060018085610ae49190612054565b81548110610af557610af4612088565b5b906000526020600020906006020160010160009054906101000a900473ffffffffffffffffffffffffffffffffffffffff1673ffffffffffffffffffffffffffffffffffffffff1673ffffffffffffffffffffffffffffffffffffffff1681526020019081526020016000204290806001815401808255809150506001900390600052602060002001600090919091909150557f472dbcd999ba0ec6b1178ce58f0a27fc90a830438fe449f6bf2c63baffa34cac4260018085610bb89190612054565b81548110610bc957610bc8612088565b5b906000526020600020906006020160010160009054906101000a900473ffffffffffffffffffffffffffffffffffffffff1683604051610c0b939291906121e6565b60405180910390a15050565b655af3107a4000341015610c57576040517fce027d0d00000000000000000000000000000000000000000000000000000000815260040160405180910390fd5b3460018084610c669190612054565b81548110610c7757610c76612088565b5b90600052602060002090600602016002016000828254610c9791906120ef565b9250508190555060008173ffffffffffffffffffffffffffffffffffffffff1634604051610cc490612010565b60006040518083038185875af1925050503d8060008114610d01576040519150601f19603f3d011682016040523d82523d6000602084013e610d06565b606091505b5050905080610d41576040517f362f189f00000000000000000000000000000000000000000000000000000000815260040160405180910390fd5b7fea5532f7da24511b0f68fb5d9c492ae8611139a2bb849ca0291dbf6a266a318c3460018086610d719190612054565b81548110610d8257610d81612088565b5b906000526020600020906006020160010160009054906101000a900473ffffffffffffffffffffffffffffffffffffffff16604051610dc292919061221d565b60405180910390a1505050565b60008173ffffffffffffffffffffffffffffffffffffffff16638f5dd28f6040518163ffffffff1660e01b8152600401602060405180830381865afa158015610e1c573d6000803e3d6000fd5b505050506040513d601f19601f82011682018060405250810190610e409190612272565b9050919050565b60018083610e559190612054565b81548110610e6657610e65612088565b5b906000526020600020906006020160040160019054906101000a900473ffffffffffffffffffffffffffffffffffffffff1673ffffffffffffffffffffffffffffffffffffffff163373ffffffffffffffffffffffffffffffffffffffff1614610efc576040517fea8e4eb500000000000000000000000000000000000000000000000000000000815260040160405180910390fd5b8060018084610f0b9190612054565b81548110610f1c57610f1b612088565b5b9060005260206000209060060201600301819055507fb13cace0335cf27f9a92f0c874a39bb19ad3863131152b467d9a0cae23e204308160018085610f619190612054565b81548110610f7257610f71612088565b5b906000526020600020906006020160010160009054906101000a900473ffffffffffffffffffffffffffffffffffffffff1633604051610fb49392919061229f565b60405180910390a15050565b600060018083610fd09190612054565b81548110610fe157610fe0612088565b5b906000526020600020906006020160040160019054906101000a900473ffffffffffffffffffffffffffffffffffffffff1673ffffffffffffffffffffffffffffffffffffffff163373ffffffffffffffffffffffffffffffffffffffff1614611077576040517fea8e4eb500000000000000000000000000000000000000000000000000000000815260040160405180910390fd5b6001806001846110879190612054565b8154811061109857611097612088565b5b906000526020600020906006020160040160006101000a81548160ff021916908360018111156110cb576110ca611c14565b5b0217905550600180836110de9190612054565b815481106110ef576110ee612088565b5b90600052602060002090600602016002015490507ff05dadadae71396048aa495562575dc275f44dcb28c57c9224cff0b70fc1a775600180846111329190612054565b8154811061114357611142612088565b5b906000526020600020906006020160010160009054906101000a900473ffffffffffffffffffffffffffffffffffffffff168233604051611186939291906122d6565b60405180910390a15050565b60606001805480602002602001604051908101604052809291908181526020016000905b828210156112f757838290600052602060002090600602016040518060e0016040529081600082015481526020016001820160009054906101000a900473ffffffffffffffffffffffffffffffffffffffff1673ffffffffffffffffffffffffffffffffffffffff1673ffffffffffffffffffffffffffffffffffffffff16815260200160028201548152602001600382015481526020016004820160009054906101000a900460ff16600181111561127257611271611c14565b5b600181111561128457611283611c14565b5b81526020016004820160019054906101000a900473ffffffffffffffffffffffffffffffffffffffff1673ffffffffffffffffffffffffffffffffffffffff1673ffffffffffffffffffffffffffffffffffffffff168152602001600582015481525050815260200190600101906111b6565b50505050905090565b60007f0000000000000000000000000000000000000000000000000000000000000000905090565b611330611953565b6001808361133e9190612054565b8154811061134f5761134e612088565b5b90600052602060002090600602016040518060e0016040529081600082015481526020016001820160009054906101000a900473ffffffffffffffffffffffffffffffffffffffff1673ffffffffffffffffffffffffffffffffffffffff1673ffffffffffffffffffffffffffffffffffffffff16815260200160028201548152602001600382015481526020016004820160009054906101000a900460ff16600181111561140157611400611c14565b5b600181111561141357611412611c14565b5b81526020016004820160019054906101000a900473ffffffffffffffffffffffffffffffffffffffff1673ffffffffffffffffffffffffffffffffffffffff1673ffffffffffffffffffffffffffffffffffffffff1681526020016005820154815250509050919050565b7f000000000000000000000000000000000000000000000000000000000000000073ffffffffffffffffffffffffffffffffffffffff163373ffffffffffffffffffffffffffffffffffffffff161461150c576040517f08c379a000000000000000000000000000000000000000000000000000000000815260040161150390611fbf565b60405180910390fd5b6509184e72a00034101561154c576040517fce027d0d00000000000000000000000000000000000000000000000000000000815260040160405180910390fd5b7f89beda094c88526c39d5baf990beefe98ad938fa0fb46af0c5560751beb96c85343360405161157d92919061221d565b60405180910390a1565b6060600360008373ffffffffffffffffffffffffffffffffffffffff1673ffffffffffffffffffffffffffffffffffffffff16815260200190815260200160002080548060200260200160405190810160405280929190818152602001828054801561161257602002820191906000526020600020905b8154815260200190600101908083116115fe575b50505050509050919050565b611626611953565b61162e611953565b60005b600180549050811015611808578373ffffffffffffffffffffffffffffffffffffffff166001828154811061166957611668612088565b5b906000526020600020906006020160010160009054906101000a900473ffffffffffffffffffffffffffffffffffffffff1673ffffffffffffffffffffffffffffffffffffffff16036117f557600181815481106116ca576116c9612088565b5b90600052602060002090600602016040518060e0016040529081600082015481526020016001820160009054906101000a900473ffffffffffffffffffffffffffffffffffffffff1673ffffffffffffffffffffffffffffffffffffffff1673ffffffffffffffffffffffffffffffffffffffff16815260200160028201548152602001600382015481526020016004820160009054906101000a900460ff16600181111561177c5761177b611c14565b5b600181111561178e5761178d611c14565b5b81526020016004820160019054906101000a900473ffffffffffffffffffffffffffffffffffffffff1673ffffffffffffffffffffffffffffffffffffffff1673ffffffffffffffffffffffffffffffffffffffff16815260200160058201548152505091505b80806118009061230d565b915050611631565b5080915050919050565b7f000000000000000000000000000000000000000000000000000000000000000073ffffffffffffffffffffffffffffffffffffffff163373ffffffffffffffffffffffffffffffffffffffff16146118a0576040517f08c379a000000000000000000000000000000000000000000000000000000000815260040161189790611fbf565b60405180910390fd5b600180826118ae9190612054565b815481106118bf576118be612088565b5b906000526020600020906006020160010160009054906101000a900473ffffffffffffffffffffffffffffffffffffffff1673ffffffffffffffffffffffffffffffffffffffff1663049aacfe6040518163ffffffff1660e01b8152600401600060405180830381600087803b15801561193857600080fd5b505af115801561194c573d6000803e3d6000fd5b5050505050565b6040518060e0016040528060008152602001600073ffffffffffffffffffffffffffffffffffffffff1681526020016000815260200160008152602001600060018111156119a4576119a3611c14565b5b8152602001600073ffffffffffffffffffffffffffffffffffffffff168152602001600081525090565b600080fd5b6000819050919050565b6119e6816119d3565b81146119f157600080fd5b50565b600081359050611a03816119dd565b92915050565b600060208284031215611a1f57611a1e6119ce565b5b6000611a2d848285016119f4565b91505092915050565b600073ffffffffffffffffffffffffffffffffffffffff82169050919050565b6000611a6182611a36565b9050919050565b611a7181611a56565b8114611a7c57600080fd5b50565b600081359050611a8e81611a68565b92915050565b600080600060608486031215611aad57611aac6119ce565b5b6000611abb86828701611a7f565b9350506020611acc868287016119f4565b9250506040611add86828701611a7f565b9150509250925092565b60008060408385031215611afe57611afd6119ce565b5b6000611b0c858286016119f4565b9250506020611b1d858286016119f4565b9150509250929050565b60008060408385031215611b3e57611b3d6119ce565b5b6000611b4c858286016119f4565b9250506020611b5d85828601611a7f565b9150509250929050565b600060208284031215611b7d57611b7c6119ce565b5b6000611b8b84828501611a7f565b91505092915050565b60008115159050919050565b611ba981611b94565b82525050565b6000602082019050611bc46000830184611ba0565b92915050565b600081519050919050565b600082825260208201905092915050565b6000819050602082019050919050565b611bff816119d3565b82525050565b611c0e81611a56565b82525050565b7f4e487b7100000000000000000000000000000000000000000000000000000000600052602160045260246000fd5b60028110611c5457611c53611c14565b5b50565b6000819050611c6582611c43565b919050565b6000611c7582611c57565b9050919050565b611c8581611c6a565b82525050565b60e082016000820151611ca16000850182611bf6565b506020820151611cb46020850182611c05565b506040820151611cc76040850182611bf6565b506060820151611cda6060850182611bf6565b506080820151611ced6080850182611c7c565b5060a0820151611d0060a0850182611c05565b5060c0820151611d1360c0850182611bf6565b50505050565b6000611d258383611c8b565b60e08301905092915050565b6000602082019050919050565b6000611d4982611bca565b611d538185611bd5565b9350611d5e83611be6565b8060005b83811015611d8f578151611d768882611d19565b9750611d8183611d31565b925050600181019050611d62565b5085935050505092915050565b60006020820190508181036000830152611db68184611d3e565b905092915050565b611dc781611a56565b82525050565b6000602082019050611de26000830184611dbe565b92915050565b60e082016000820151611dfe6000850182611bf6565b506020820151611e116020850182611c05565b506040820151611e246040850182611bf6565b506060820151611e376060850182611bf6565b506080820151611e4a6080850182611c7c565b5060a0820151611e5d60a0850182611c05565b5060c0820151611e7060c0850182611bf6565b50505050565b600060e082019050611e8b6000830184611de8565b92915050565b600081519050919050565b600082825260208201905092915050565b6000819050602082019050919050565b6000611ec98383611bf6565b60208301905092915050565b6000602082019050919050565b6000611eed82611e91565b611ef78185611e9c565b9350611f0283611ead565b8060005b83811015611f33578151611f1a8882611ebd565b9750611f2583611ed5565b925050600181019050611f06565b5085935050505092915050565b60006020820190508181036000830152611f5a8184611ee2565b905092915050565b600082825260208201905092915050565b7f75736572206973206e6f74206f776e6572000000000000000000000000000000600082015250565b6000611fa9601183611f62565b9150611fb482611f73565b602082019050919050565b60006020820190508181036000830152611fd881611f9c565b9050919050565b600081905092915050565b50565b6000611ffa600083611fdf565b915061200582611fea565b600082019050919050565b600061201b82611fed565b9150819050919050565b7f4e487b7100000000000000000000000000000000000000000000000000000000600052601160045260246000fd5b600061205f826119d3565b915061206a836119d3565b925082820390508181111561208257612081612025565b5b92915050565b7f4e487b7100000000000000000000000000000000000000000000000000000000600052603260045260246000fd5b6120c0816119d3565b82525050565b60006040820190506120db6000830185611dbe565b6120e860208301846120b7565b9392505050565b60006120fa826119d3565b9150612105836119d3565b925082820190508082111561211d5761211c612025565b5b92915050565b61212c81611c6a565b82525050565b6000819050919050565b6000819050919050565b600061216161215c61215784612132565b61213c565b6119d3565b9050919050565b61217181612146565b82525050565b600060e08201905061218c600083018a6120b7565b6121996020830189611dbe565b6121a660408301886120b7565b6121b360608301876120b7565b6121c06080830186612123565b6121cd60a0830185611dbe565b6121da60c0830184612168565b98975050505050505050565b60006060820190506121fb60008301866120b7565b6122086020830185611dbe565b61221560408301846120b7565b949350505050565b600060408201905061223260008301856120b7565b61223f6020830184611dbe565b9392505050565b61224f81611b94565b811461225a57600080fd5b50565b60008151905061226c81612246565b92915050565b600060208284031215612288576122876119ce565b5b60006122968482850161225d565b91505092915050565b60006060820190506122b460008301866120b7565b6122c16020830185611dbe565b6122ce6040830184611dbe565b949350505050565b60006060820190506122eb6000830186611dbe565b6122f860208301856120b7565b6123056040830184611dbe565b949350505050565b6000612318826119d3565b91507fffffffffffffffffffffffffffffffffffffffffffffffffffffffffffffffff820361234a57612349612025565b5b60018201905091905056fea2646970667358221220fd7e5a284d9ac84dff481e1821d75901d54ac437513f32d2c7c32af4bd5ab8b064736f6c63430008110033",
  "devdoc": {
    "kind": "dev",
    "methods": {},
    "version": 1
  },
  "userdoc": {
    "kind": "user",
    "methods": {},
    "version": 1
  },
  "storageLayout": {
    "storage": [
      {
        "astId": 28,
        "contract": "contracts/solMate.sol:SolMate",
        "label": "name",
        "offset": 0,
        "slot": "0",
        "type": "t_string_storage"
      },
      {
        "astId": 119,
        "contract": "contracts/solMate.sol:SolMate",
        "label": "s_tasks",
        "offset": 0,
        "slot": "1",
        "type": "t_array(t_struct(AutoTask)115_storage)dyn_storage"
      },
      {
        "astId": 125,
        "contract": "contracts/solMate.sol:SolMate",
        "label": "s_tasksOf",
        "offset": 0,
        "slot": "2",
        "type": "t_mapping(t_address,t_array(t_struct(AutoTask)115_storage)dyn_storage)"
      },
      {
        "astId": 132,
        "contract": "contracts/solMate.sol:SolMate",
        "label": "s_execListOf",
        "offset": 0,
        "slot": "3",
        "type": "t_mapping(t_address,t_array(t_uint256)dyn_storage)"
      }
    ],
    "types": {
      "t_address": {
        "encoding": "inplace",
        "label": "address",
        "numberOfBytes": "20"
      },
      "t_array(t_struct(AutoTask)115_storage)dyn_storage": {
        "base": "t_struct(AutoTask)115_storage",
        "encoding": "dynamic_array",
        "label": "struct SolMate.AutoTask[]",
        "numberOfBytes": "32"
      },
      "t_array(t_uint256)dyn_storage": {
        "base": "t_uint256",
        "encoding": "dynamic_array",
        "label": "uint256[]",
        "numberOfBytes": "32"
      },
      "t_enum(TaskState)26": {
        "encoding": "inplace",
        "label": "enum SolMate.TaskState",
        "numberOfBytes": "1"
      },
      "t_mapping(t_address,t_array(t_struct(AutoTask)115_storage)dyn_storage)": {
        "encoding": "mapping",
        "key": "t_address",
        "label": "mapping(address => struct SolMate.AutoTask[])",
        "numberOfBytes": "32",
        "value": "t_array(t_struct(AutoTask)115_storage)dyn_storage"
      },
      "t_mapping(t_address,t_array(t_uint256)dyn_storage)": {
        "encoding": "mapping",
        "key": "t_address",
        "label": "mapping(address => uint256[])",
        "numberOfBytes": "32",
        "value": "t_array(t_uint256)dyn_storage"
      },
      "t_string_storage": {
        "encoding": "bytes",
        "label": "string",
        "numberOfBytes": "32"
      },
      "t_struct(AutoTask)115_storage": {
        "encoding": "inplace",
        "label": "struct SolMate.AutoTask",
        "members": [
          {
            "astId": 101,
            "contract": "contracts/solMate.sol:SolMate",
            "label": "id",
            "offset": 0,
            "slot": "0",
            "type": "t_uint256"
          },
          {
            "astId": 103,
            "contract": "contracts/solMate.sol:SolMate",
            "label": "taskAddress",
            "offset": 0,
            "slot": "1",
            "type": "t_address"
          },
          {
            "astId": 105,
            "contract": "contracts/solMate.sol:SolMate",
            "label": "funds",
            "offset": 0,
            "slot": "2",
            "type": "t_uint256"
          },
          {
            "astId": 107,
            "contract": "contracts/solMate.sol:SolMate",
            "label": "gasLimit",
            "offset": 0,
            "slot": "3",
            "type": "t_uint256"
          },
          {
            "astId": 110,
            "contract": "contracts/solMate.sol:SolMate",
            "label": "state",
            "offset": 0,
            "slot": "4",
            "type": "t_enum(TaskState)26"
          },
          {
            "astId": 112,
            "contract": "contracts/solMate.sol:SolMate",
            "label": "creator",
            "offset": 1,
            "slot": "4",
            "type": "t_address"
          },
          {
            "astId": 114,
            "contract": "contracts/solMate.sol:SolMate",
            "label": "totalCostForExec",
            "offset": 0,
            "slot": "5",
            "type": "t_uint256"
          }
        ],
        "numberOfBytes": "192"
      },
      "t_uint256": {
        "encoding": "inplace",
        "label": "uint256",
        "numberOfBytes": "32"
      }
    }
  }
}