{
  "address": "0xb835E22B5125888EEE350A5841f35d6259802689",
  "abi": [
    {
      "inputs": [],
      "stateMutability": "nonpayable",
      "type": "constructor"
    },
    {
      "inputs": [],
      "name": "FundingFailed",
      "type": "error"
    },
    {
      "inputs": [],
      "name": "MinimumBalanceRequired",
      "type": "error"
    },
    {
      "inputs": [],
      "name": "NotAuthorized",
      "type": "error"
    },
    {
      "inputs": [],
      "name": "TopUpFailed",
      "type": "error"
    },
    {
      "anonymous": false,
      "inputs": [
        {
          "indexed": false,
          "internalType": "address",
          "name": "taskAddress",
          "type": "address"
        },
        {
          "indexed": false,
          "internalType": "address",
          "name": "owner",
          "type": "address"
        }
      ],
      "name": "AutoTaskCancelled",
      "type": "event"
    },
    {
      "anonymous": false,
      "inputs": [
        {
          "indexed": false,
          "internalType": "uint256",
          "name": "gasLimit",
          "type": "uint256"
        },
        {
          "indexed": false,
          "internalType": "address",
          "name": "taskAddress",
          "type": "address"
        },
        {
          "indexed": false,
          "internalType": "address",
          "name": "user",
          "type": "address"
        }
      ],
      "name": "GasLimitUpdated",
      "type": "event"
    },
    {
      "anonymous": false,
      "inputs": [
        {
          "indexed": false,
          "internalType": "uint256",
          "name": "id",
          "type": "uint256"
        },
        {
          "indexed": false,
          "internalType": "address",
          "name": "taskAddress",
          "type": "address"
        },
        {
          "indexed": false,
          "internalType": "uint256",
          "name": "funds",
          "type": "uint256"
        },
        {
          "indexed": false,
          "internalType": "uint256",
          "name": "gasLimit",
          "type": "uint256"
        },
        {
          "indexed": false,
          "internalType": "enum SolMate.TaskState",
          "name": "state",
          "type": "uint8"
        },
        {
          "indexed": false,
          "internalType": "uint256",
          "name": "interval",
          "type": "uint256"
        },
        {
          "indexed": false,
          "internalType": "address",
          "name": "creator",
          "type": "address"
        },
        {
          "indexed": false,
          "internalType": "uint256",
          "name": "totalCostForExec",
          "type": "uint256"
        }
      ],
      "name": "NewAutoTask",
      "type": "event"
    },
    {
      "anonymous": false,
      "inputs": [
        {
          "indexed": false,
          "internalType": "uint256",
          "name": "time",
          "type": "uint256"
        },
        {
          "indexed": false,
          "internalType": "address",
          "name": "taskAddress",
          "type": "address"
        },
        {
          "indexed": false,
          "internalType": "uint256",
          "name": "amount",
          "type": "uint256"
        }
      ],
      "name": "TaskDetailsUpdated",
      "type": "event"
    },
    {
      "anonymous": false,
      "inputs": [
        {
          "indexed": false,
          "internalType": "address",
          "name": "taskAddress",
          "type": "address"
        },
        {
          "indexed": false,
          "internalType": "uint256",
          "name": "fund",
          "type": "uint256"
        }
      ],
      "name": "TaskFundWithdrawSuccess",
      "type": "event"
    },
    {
      "anonymous": false,
      "inputs": [
        {
          "indexed": false,
          "internalType": "uint256",
          "name": "amount",
          "type": "uint256"
        },
        {
          "indexed": false,
          "internalType": "address",
          "name": "taskAddress",
          "type": "address"
        }
      ],
      "name": "TaskFundingSuccess",
      "type": "event"
    },
    {
      "inputs": [
        {
          "internalType": "address",
          "name": "_taskAddress",
          "type": "address"
        },
        {
          "internalType": "address",
          "name": "executor",
          "type": "address"
        }
      ],
      "name": "addFunds",
      "outputs": [],
      "stateMutability": "payable",
      "type": "function"
    },
    {
      "inputs": [
        {
          "internalType": "address",
          "name": "_taskAddress",
          "type": "address"
        }
      ],
      "name": "cancelAutomation",
      "outputs": [],
      "stateMutability": "nonpayable",
      "type": "function"
    },
    {
      "inputs": [
        {
          "internalType": "uint256",
          "name": "_id",
          "type": "uint256"
        }
      ],
      "name": "checkAutomationStatus",
      "outputs": [
        {
          "internalType": "bool",
          "name": "automationNeeded",
          "type": "bool"
        }
      ],
      "stateMutability": "view",
      "type": "function"
    },
    {
      "inputs": [
        {
          "internalType": "address",
          "name": "_address",
          "type": "address"
        },
        {
          "internalType": "uint256",
          "name": "_gasLimit",
          "type": "uint256"
        },
        {
          "internalType": "uint256",
          "name": "_interval",
          "type": "uint256"
        },
        {
          "internalType": "address",
          "name": "executor",
          "type": "address"
        }
      ],
      "name": "createAutomation",
      "outputs": [],
      "stateMutability": "payable",
      "type": "function"
    },
    {
      "inputs": [],
      "name": "getAllTasks",
      "outputs": [
        {
          "components": [
            {
              "internalType": "uint256",
              "name": "id",
              "type": "uint256"
            },
            {
              "internalType": "address",
              "name": "taskAddress",
              "type": "address"
            },
            {
              "internalType": "uint256",
              "name": "funds",
              "type": "uint256"
            },
            {
              "internalType": "uint256",
              "name": "gasLimit",
              "type": "uint256"
            },
            {
              "internalType": "enum SolMate.TaskState",
              "name": "state",
              "type": "uint8"
            },
            {
              "internalType": "uint256",
              "name": "interval",
              "type": "uint256"
            },
            {
              "internalType": "address",
              "name": "creator",
              "type": "address"
            },
            {
              "internalType": "uint256",
              "name": "totalCostForExec",
              "type": "uint256"
            }
          ],
          "internalType": "struct SolMate.AutoTask[]",
          "name": "",
          "type": "tuple[]"
        }
      ],
      "stateMutability": "view",
      "type": "function"
    },
    {
      "inputs": [
        {
          "internalType": "address",
          "name": "_taskAddress",
          "type": "address"
        }
      ],
      "name": "getExecListOf",
      "outputs": [
        {
          "internalType": "uint256[]",
          "name": "",
          "type": "uint256[]"
        }
      ],
      "stateMutability": "view",
      "type": "function"
    },
    {
      "inputs": [],
      "name": "getOwner",
      "outputs": [
        {
          "internalType": "address",
          "name": "",
          "type": "address"
        }
      ],
      "stateMutability": "view",
      "type": "function"
    },
    {
      "inputs": [
        {
          "internalType": "address",
          "name": "_taskAddress",
          "type": "address"
        },
        {
          "internalType": "uint256",
          "name": "amount",
          "type": "uint256"
        }
      ],
      "name": "updateTaskExecDetails",
      "outputs": [],
      "stateMutability": "payable",
      "type": "function"
    },
    {
      "inputs": [
        {
          "internalType": "address",
          "name": "_taskAddress",
          "type": "address"
        },
        {
          "internalType": "uint256",
          "name": "_gasLimit",
          "type": "uint256"
        }
      ],
      "name": "updateTaskGasLimit",
      "outputs": [],
      "stateMutability": "payable",
      "type": "function"
    },
    {
      "inputs": [
        {
          "internalType": "address",
          "name": "_taskAddress",
          "type": "address"
        }
      ],
      "name": "withdrawFunds",
      "outputs": [],
      "stateMutability": "payable",
      "type": "function"
    }
  ],
  "transactionHash": "0x3ef4bfec01db212f3bd2dca2d830940793f5d6ff41cae169cdecb3f113454589",
  "args": [],
  "numDeployments": 5,
  "solcInputHash": "55a2985f11416cf10661ca3b940305a3",
  "bytecode": "0x60a060405234801561001057600080fd5b503373ffffffffffffffffffffffffffffffffffffffff1660808173ffffffffffffffffffffffffffffffffffffffff168152505060805161199a6100606000396000610ab5015261199a6000f3fe6080604052600436106100915760003560e01c8063a5a01a0e11610059578063a5a01a0e14610140578063ad296f271461015c578063d056935d14610185578063deccf00a146101c2578063ea25bf0e146101ff57610091565b806329321d0e14610096578063358e9db5146100b257806368742da6146100ce578063779900b4146100ea578063893d20e814610115575b600080fd5b6100b060048036038101906100ab91906111cb565b61021b565b005b6100cc60048036038101906100c79190611232565b6105c2565b005b6100e860048036038101906100e39190611272565b610806565b005b3480156100f657600080fd5b506100ff610938565b60405161010c9190611486565b60405180910390f35b34801561012157600080fd5b5061012a610ab1565b60405161013791906114b7565b60405180910390f35b61015a600480360381019061015591906114d2565b610ad9565b005b34801561016857600080fd5b50610183600480360381019061017e9190611272565b610cd3565b005b34801561019157600080fd5b506101ac60048036038101906101a79190611272565b610df9565b6040516101b991906115c1565b60405180910390f35b3480156101ce57600080fd5b506101e960048036038101906101e491906115e3565b610e90565b6040516101f6919061162b565b60405180910390f35b61021960048036038101906102149190611232565b61102c565b005b6601c6bf5263400034101561025c576040517fce027d0d00000000000000000000000000000000000000000000000000000000815260040160405180910390fd5b60016040518061010001604052806001808054905061027b9190611675565b81526020018673ffffffffffffffffffffffffffffffffffffffff168152602001348152602001858152602001600060018111156102bc576102bb6112e9565b5b81526020018481526020013373ffffffffffffffffffffffffffffffffffffffff168152602001600081525090806001815401808255809150506001900390600052602060002090600802016000909190919091506000820151816000015560208201518160010160006101000a81548173ffffffffffffffffffffffffffffffffffffffff021916908373ffffffffffffffffffffffffffffffffffffffff160217905550604082015181600201556060820151816003015560808201518160040160006101000a81548160ff021916908360018111156103a1576103a06112e9565b5b021790555060a0820151816005015560c08201518160060160006101000a81548173ffffffffffffffffffffffffffffffffffffffff021916908373ffffffffffffffffffffffffffffffffffffffff16021790555060e0820151816007015550506001600460008373ffffffffffffffffffffffffffffffffffffffff1673ffffffffffffffffffffffffffffffffffffffff16815260200190815260200160002060006101000a81548160ff021916908315150217905550600360008573ffffffffffffffffffffffffffffffffffffffff1673ffffffffffffffffffffffffffffffffffffffff16815260200190815260200160002042908060018154018082558091505060019003906000526020600020016000909190919091505560008173ffffffffffffffffffffffffffffffffffffffff16346040516104e7906116da565b60006040518083038185875af1925050503d8060008114610524576040519150601f19603f3d011682016040523d82523d6000602084013e610529565b606091505b5050905080610564576040517fd481fc6c00000000000000000000000000000000000000000000000000000000815260040160405180910390fd5b7fff4b3586b2dc56ba981583e836ff49a07a8d02d4da23cd7b36731739e7b7927e600180805490506105969190611675565b8634876000883360006040516105b3989796959493929190611752565b60405180910390a15050505050565b60011515600460003373ffffffffffffffffffffffffffffffffffffffff1673ffffffffffffffffffffffffffffffffffffffff16815260200190815260200160002060009054906101000a900460ff1615151461064c576040517fea8e4eb500000000000000000000000000000000000000000000000000000000815260040160405180910390fd5b60005b600180549050811015610801578273ffffffffffffffffffffffffffffffffffffffff1660018281548110610687576106866117d0565b5b906000526020600020906008020160010160009054906101000a900473ffffffffffffffffffffffffffffffffffffffff1673ffffffffffffffffffffffffffffffffffffffff16036107ee57600360008473ffffffffffffffffffffffffffffffffffffffff1673ffffffffffffffffffffffffffffffffffffffff168152602001908152602001600020429080600181540180825580915050600190039060005260206000200160009091909190915055816001828154811061074f5761074e6117d0565b5b9060005260206000209060080201600701600082825461076f9190611675565b92505081905550816001828154811061078b5761078a6117d0565b5b906000526020600020906008020160020160008282546107ab91906117ff565b925050819055507f472dbcd999ba0ec6b1178ce58f0a27fc90a830438fe449f6bf2c63baffa34cac4284846040516107e593929190611833565b60405180910390a15b80806107f99061186a565b91505061064f565b505050565b600080600090505b6001805490508110156108fa578273ffffffffffffffffffffffffffffffffffffffff1660018281548110610846576108456117d0565b5b906000526020600020906008020160010160009054906101000a900473ffffffffffffffffffffffffffffffffffffffff1673ffffffffffffffffffffffffffffffffffffffff16036108e757600181815481106108a7576108a66117d0565b5b90600052602060002090600802016002015491506000600182815481106108d1576108d06117d0565b5b9060005260206000209060080201600201819055505b80806108f29061186a565b91505061080e565b507ff404fa7f55898872111a8af61ad9ea7a6123fcc288c97073fb2dc7c7c6c38ed9828260405161092c9291906118b2565b60405180910390a15050565b60606001805480602002602001604051908101604052809291908181526020016000905b82821015610aa8578382906000526020600020906008020160405180610100016040529081600082015481526020016001820160009054906101000a900473ffffffffffffffffffffffffffffffffffffffff1673ffffffffffffffffffffffffffffffffffffffff1673ffffffffffffffffffffffffffffffffffffffff16815260200160028201548152602001600382015481526020016004820160009054906101000a900460ff166001811115610a1957610a186112e9565b5b6001811115610a2b57610a2a6112e9565b5b8152602001600582015481526020016006820160009054906101000a900473ffffffffffffffffffffffffffffffffffffffff1673ffffffffffffffffffffffffffffffffffffffff1673ffffffffffffffffffffffffffffffffffffffff1681526020016007820154815250508152602001906001019061095c565b50505050905090565b60007f0000000000000000000000000000000000000000000000000000000000000000905090565b655af3107a4000341015610b19576040517fce027d0d00000000000000000000000000000000000000000000000000000000815260040160405180910390fd5b60005b600180549050811015610bf1578273ffffffffffffffffffffffffffffffffffffffff1660018281548110610b5457610b536117d0565b5b906000526020600020906008020160010160009054906101000a900473ffffffffffffffffffffffffffffffffffffffff1673ffffffffffffffffffffffffffffffffffffffff1603610bde573460018281548110610bb657610bb56117d0565b5b90600052602060002090600802016002016000828254610bd69190611675565b925050819055505b8080610be99061186a565b915050610b1c565b5060008173ffffffffffffffffffffffffffffffffffffffff1634604051610c18906116da565b60006040518083038185875af1925050503d8060008114610c55576040519150601f19603f3d011682016040523d82523d6000602084013e610c5a565b606091505b5050905080610c95576040517f362f189f00000000000000000000000000000000000000000000000000000000815260040160405180910390fd5b7fea5532f7da24511b0f68fb5d9c492ae8611139a2bb849ca0291dbf6a266a318c3484604051610cc69291906118db565b60405180910390a1505050565b60005b600180549050811015610dbc578173ffffffffffffffffffffffffffffffffffffffff1660018281548110610d0e57610d0d6117d0565b5b906000526020600020906008020160010160009054906101000a900473ffffffffffffffffffffffffffffffffffffffff1673ffffffffffffffffffffffffffffffffffffffff1603610da9576001808281548110610d7057610d6f6117d0565b5b906000526020600020906008020160040160006101000a81548160ff02191690836001811115610da357610da26112e9565b5b02179055505b8080610db49061186a565b915050610cd6565b507f392994f60209173b727a140f1e8e5e95ee5cc775a7b2fb39a54e3f98e70436628133604051610dee929190611904565b60405180910390a150565b6060600360008373ffffffffffffffffffffffffffffffffffffffff1673ffffffffffffffffffffffffffffffffffffffff168152602001908152602001600020805480602002602001604051908101604052809291908181526020018280548015610e8457602002820191906000526020600020905b815481526020019060010190808311610e70575b50505050509050919050565b6000600560018084610ea291906117ff565b81548110610eb357610eb26117d0565b5b906000526020600020906008020160050154610ecf91906117ff565b6003600060018086610ee191906117ff565b81548110610ef257610ef16117d0565b5b906000526020600020906008020160010160009054906101000a900473ffffffffffffffffffffffffffffffffffffffff1673ffffffffffffffffffffffffffffffffffffffff1673ffffffffffffffffffffffffffffffffffffffff16815260200190815260200160002060016003600060018088610f7291906117ff565b81548110610f8357610f826117d0565b5b906000526020600020906008020160010160009054906101000a900473ffffffffffffffffffffffffffffffffffffffff1673ffffffffffffffffffffffffffffffffffffffff1673ffffffffffffffffffffffffffffffffffffffff16815260200190815260200160002080549050610ffd91906117ff565b8154811061100e5761100d6117d0565b5b90600052602060002001544261102491906117ff565b119050919050565b60005b60018054905081101561112d578273ffffffffffffffffffffffffffffffffffffffff1660018281548110611067576110666117d0565b5b906000526020600020906008020160010160009054906101000a900473ffffffffffffffffffffffffffffffffffffffff1673ffffffffffffffffffffffffffffffffffffffff160361111a5781600182815481106110c9576110c86117d0565b5b9060005260206000209060080201600301819055507fb13cace0335cf27f9a92f0c874a39bb19ad3863131152b467d9a0cae23e204308284336040516111119392919061192d565b60405180910390a15b80806111259061186a565b91505061102f565b505050565b600080fd5b600073ffffffffffffffffffffffffffffffffffffffff82169050919050565b600061116282611137565b9050919050565b61117281611157565b811461117d57600080fd5b50565b60008135905061118f81611169565b92915050565b6000819050919050565b6111a881611195565b81146111b357600080fd5b50565b6000813590506111c58161119f565b92915050565b600080600080608085870312156111e5576111e4611132565b5b60006111f387828801611180565b9450506020611204878288016111b6565b9350506040611215878288016111b6565b925050606061122687828801611180565b91505092959194509250565b6000806040838503121561124957611248611132565b5b600061125785828601611180565b9250506020611268858286016111b6565b9150509250929050565b60006020828403121561128857611287611132565b5b600061129684828501611180565b91505092915050565b600081519050919050565b600082825260208201905092915050565b6000819050602082019050919050565b6112d481611195565b82525050565b6112e381611157565b82525050565b7f4e487b7100000000000000000000000000000000000000000000000000000000600052602160045260246000fd5b60028110611329576113286112e9565b5b50565b600081905061133a82611318565b919050565b600061134a8261132c565b9050919050565b61135a8161133f565b82525050565b6101008201600082015161137760008501826112cb565b50602082015161138a60208501826112da565b50604082015161139d60408501826112cb565b5060608201516113b060608501826112cb565b5060808201516113c36080850182611351565b5060a08201516113d660a08501826112cb565b5060c08201516113e960c08501826112da565b5060e08201516113fc60e08501826112cb565b50505050565b600061140e8383611360565b6101008301905092915050565b6000602082019050919050565b60006114338261129f565b61143d81856112aa565b9350611448836112bb565b8060005b838110156114795781516114608882611402565b975061146b8361141b565b92505060018101905061144c565b5085935050505092915050565b600060208201905081810360008301526114a08184611428565b905092915050565b6114b181611157565b82525050565b60006020820190506114cc60008301846114a8565b92915050565b600080604083850312156114e9576114e8611132565b5b60006114f785828601611180565b925050602061150885828601611180565b9150509250929050565b600081519050919050565b600082825260208201905092915050565b6000819050602082019050919050565b600061154a83836112cb565b60208301905092915050565b6000602082019050919050565b600061156e82611512565b611578818561151d565b93506115838361152e565b8060005b838110156115b457815161159b888261153e565b97506115a683611556565b925050600181019050611587565b5085935050505092915050565b600060208201905081810360008301526115db8184611563565b905092915050565b6000602082840312156115f9576115f8611132565b5b6000611607848285016111b6565b91505092915050565b60008115159050919050565b61162581611610565b82525050565b6000602082019050611640600083018461161c565b92915050565b7f4e487b7100000000000000000000000000000000000000000000000000000000600052601160045260246000fd5b600061168082611195565b915061168b83611195565b92508282019050808211156116a3576116a2611646565b5b92915050565b600081905092915050565b50565b60006116c46000836116a9565b91506116cf826116b4565b600082019050919050565b60006116e5826116b7565b9150819050919050565b6116f881611195565b82525050565b6117078161133f565b82525050565b6000819050919050565b6000819050919050565b600061173c6117376117328461170d565b611717565b611195565b9050919050565b61174c81611721565b82525050565b600061010082019050611768600083018b6116ef565b611775602083018a6114a8565b61178260408301896116ef565b61178f60608301886116ef565b61179c60808301876116fe565b6117a960a08301866116ef565b6117b660c08301856114a8565b6117c360e0830184611743565b9998505050505050505050565b7f4e487b7100000000000000000000000000000000000000000000000000000000600052603260045260246000fd5b600061180a82611195565b915061181583611195565b925082820390508181111561182d5761182c611646565b5b92915050565b600060608201905061184860008301866116ef565b61185560208301856114a8565b61186260408301846116ef565b949350505050565b600061187582611195565b91507fffffffffffffffffffffffffffffffffffffffffffffffffffffffffffffffff82036118a7576118a6611646565b5b600182019050919050565b60006040820190506118c760008301856114a8565b6118d460208301846116ef565b9392505050565b60006040820190506118f060008301856116ef565b6118fd60208301846114a8565b9392505050565b600060408201905061191960008301856114a8565b61192660208301846114a8565b9392505050565b600060608201905061194260008301866116ef565b61194f60208301856114a8565b61195c60408301846114a8565b94935050505056fea26469706673582212204e2d2000120f8e3d614e35392914f09abe6da9fafb7bc6ccd5427450b9bd270e64736f6c63430008110033",
  "devdoc": {
    "kind": "dev",
    "methods": {},
    "version": 1
  },
  "userdoc": {
    "kind": "user",
    "methods": {},
    "version": 1
  },
  "storageLayout": {
    "storage": [
      {
        "astId": 16,
        "contract": "contracts/solMate.sol:SolMate",
        "label": "name",
        "offset": 0,
        "slot": "0",
        "type": "t_string_storage"
      },
      {
        "astId": 103,
        "contract": "contracts/solMate.sol:SolMate",
        "label": "s_tasks",
        "offset": 0,
        "slot": "1",
        "type": "t_array(t_struct(AutoTask)99_storage)dyn_storage"
      },
      {
        "astId": 109,
        "contract": "contracts/solMate.sol:SolMate",
        "label": "s_tasksOf",
        "offset": 0,
        "slot": "2",
        "type": "t_mapping(t_address,t_array(t_struct(AutoTask)99_storage)dyn_storage)"
      },
      {
        "astId": 116,
        "contract": "contracts/solMate.sol:SolMate",
        "label": "s_execListOf",
        "offset": 0,
        "slot": "3",
        "type": "t_mapping(t_address,t_array(t_uint256)dyn_storage)"
      },
      {
        "astId": 120,
        "contract": "contracts/solMate.sol:SolMate",
        "label": "s_isAuthorized",
        "offset": 0,
        "slot": "4",
        "type": "t_mapping(t_address,t_bool)"
      }
    ],
    "types": {
      "t_address": {
        "encoding": "inplace",
        "label": "address",
        "numberOfBytes": "20"
      },
      "t_array(t_struct(AutoTask)99_storage)dyn_storage": {
        "base": "t_struct(AutoTask)99_storage",
        "encoding": "dynamic_array",
        "label": "struct SolMate.AutoTask[]",
        "numberOfBytes": "32"
      },
      "t_array(t_uint256)dyn_storage": {
        "base": "t_uint256",
        "encoding": "dynamic_array",
        "label": "uint256[]",
        "numberOfBytes": "32"
      },
      "t_bool": {
        "encoding": "inplace",
        "label": "bool",
        "numberOfBytes": "1"
      },
      "t_enum(TaskState)14": {
        "encoding": "inplace",
        "label": "enum SolMate.TaskState",
        "numberOfBytes": "1"
      },
      "t_mapping(t_address,t_array(t_struct(AutoTask)99_storage)dyn_storage)": {
        "encoding": "mapping",
        "key": "t_address",
        "label": "mapping(address => struct SolMate.AutoTask[])",
        "numberOfBytes": "32",
        "value": "t_array(t_struct(AutoTask)99_storage)dyn_storage"
      },
      "t_mapping(t_address,t_array(t_uint256)dyn_storage)": {
        "encoding": "mapping",
        "key": "t_address",
        "label": "mapping(address => uint256[])",
        "numberOfBytes": "32",
        "value": "t_array(t_uint256)dyn_storage"
      },
      "t_mapping(t_address,t_bool)": {
        "encoding": "mapping",
        "key": "t_address",
        "label": "mapping(address => bool)",
        "numberOfBytes": "32",
        "value": "t_bool"
      },
      "t_string_storage": {
        "encoding": "bytes",
        "label": "string",
        "numberOfBytes": "32"
      },
      "t_struct(AutoTask)99_storage": {
        "encoding": "inplace",
        "label": "struct SolMate.AutoTask",
        "members": [
          {
            "astId": 83,
            "contract": "contracts/solMate.sol:SolMate",
            "label": "id",
            "offset": 0,
            "slot": "0",
            "type": "t_uint256"
          },
          {
            "astId": 85,
            "contract": "contracts/solMate.sol:SolMate",
            "label": "taskAddress",
            "offset": 0,
            "slot": "1",
            "type": "t_address"
          },
          {
            "astId": 87,
            "contract": "contracts/solMate.sol:SolMate",
            "label": "funds",
            "offset": 0,
            "slot": "2",
            "type": "t_uint256"
          },
          {
            "astId": 89,
            "contract": "contracts/solMate.sol:SolMate",
            "label": "gasLimit",
            "offset": 0,
            "slot": "3",
            "type": "t_uint256"
          },
          {
            "astId": 92,
            "contract": "contracts/solMate.sol:SolMate",
            "label": "state",
            "offset": 0,
            "slot": "4",
            "type": "t_enum(TaskState)14"
          },
          {
            "astId": 94,
            "contract": "contracts/solMate.sol:SolMate",
            "label": "interval",
            "offset": 0,
            "slot": "5",
            "type": "t_uint256"
          },
          {
            "astId": 96,
            "contract": "contracts/solMate.sol:SolMate",
            "label": "creator",
            "offset": 0,
            "slot": "6",
            "type": "t_address"
          },
          {
            "astId": 98,
            "contract": "contracts/solMate.sol:SolMate",
            "label": "totalCostForExec",
            "offset": 0,
            "slot": "7",
            "type": "t_uint256"
          }
        ],
        "numberOfBytes": "256"
      },
      "t_uint256": {
        "encoding": "inplace",
        "label": "uint256",
        "numberOfBytes": "32"
      }
    }
  }
}